:020000040800F2
:100000000000022055C90008E5C00008E7C000084C
:10001000E9C00008EBC00008EDC0000800000000C7
:10002000000000000000000000000000EFC0000819
:10003000F1C0000800000000F3C00008F5C000088F
:10004000A5C90008FDC00008A5C90008A5C9000889
:1000500005C100080DC100080FC10008A5C90008AE
:10006000A5C90008A5C90008A5C9000819C100084C
:1000700029C1000839C1000849C1000859C1000858
:1000800069C1000879C10008A5C90008A5C9000810
:10009000A5C90008A5C90008A5C90008A5C9000888
:1000A00089C1000899C10008A9C10008B9C10008A8
:1000B000A5C90008A5C90008A5C90008A5C9000868
:1000C000A5C90008A5C90008A5C90008C9C100083C
:1000D000D9C10008E9C10008A5C90008A5C90008E0
:1000E000A5C90008A5C9000800000000F9C1000862
:1000F00009C2000819C2000829C2000839C2000854
:10010000A5C90008A5C90008A5C9000849C200087A
:10011000A5C90008A5C90008A5C90008A5C9000807
:1001200059C2000869C2000879C2000889C20008E3
:1001300099C20008A5C90008A5C90008A5C90008FA
:1001400000000000000000000000000000000000AF
:10015000A5C90008A5C90008A5C90008A5C90008C7
:10016000A5C90008A5C90008A9C20008B9C20008AD
:10017000A5C90008C9C20008A5C900080000000000
:10018000A5C90008D9C20008A5C90008A5C900086A
:10019000DDC20008A5C90008EDC20008FDC20008C4
:1001A000A5C90008A5C90008A5C9000815C300080D
:1001B000A5C90008A5C90008A5C90008A5C9000867
:1001C000A5C90008A5C90008A5C90008A5C9000857
:1001D000A5C90008A5C90008A5C90008A5C9000847
:1001E000A5C90008A5C90008A5C90008A5C9000837
:1001F000A5C90008A5C90008A5C90008A5C9000827
:10020000A5C90008A5C900082DC30008A5C9000894
:10021000A5C90008A5C90008A5C90008A5C9000806
:10022000A5C90008A5C90008A5C90008000000006C
:10023000A5C9000845C3000800000000A5C90008C2
:10024000A5C900084DC300085DC30008A5C9000882
:10025000A5C90008A5C90008A5C90008A5C90008C6
:10026000A5C90008A5C90008A5C90008A5C90008B6
:10027000A5C90008A5C90008A5C90008000000001C
:10028000A5C90008A5C900086DC30008000000004A
:0802900000000000A5C90008F0
:1002A00010B5054C237833B9044B13B10448AFF3B0
:1002B00000800123237010BD2802002000000000F0
:1002C000C8D800080C4B43B10C480D4910B5AFF32A
:1002D00000800C48036823B910BD0A48036833B98D
:1002E0007047094B002BF7D0BDE810401847064B6C
:1002F000002BF5D0184700BF00000000C8D8000848
:100300002C020020280200200000000053B94AB946
:10031000002908BF00281CBF4FF0FF314FF0FF300D
:1003200000F07AB9ADF1080C6DE904CE00F006F8E2
:10033000DDF804E0DDE9022304B070472DE9F04761
:100340008C460D460446089E002B51D18A42174622
:100350006DD9B2FA82FEBEF1000F0BD0CEF1200CA7
:1003600001FA0EF520FA0CFC02FA0EF74CEA050C25
:1003700000FA0EF44FEA174A250CBCFBFAF81FFAF4
:1003800087F90AFB18CC45EA0C4508FB09F3AB4298
:100390000AD9ED1908F1FF3280F02381AB4240F217
:1003A0002081A8F102083D44ED1AA4B2B5FBFAF091
:1003B0000AFB105544EA054400FB09F9A14509D997
:1003C000E41900F1FF3380F00A81A14540F2078172
:1003D00002383C44A4EB090440EA08400021002E06
:1003E00061D024FA0EF4002334607360BDE8F08716
:1003F0008B4207D9002E54D0002186E82100084600
:10040000BDE8F087B3FA83F1002940F08E80AB425B
:1004100002D3824200F2FA80841A65EB03050120C0
:10042000AC46002E3FD086E81010BDE8F08712B928
:100430000127B7FBF2F7B7FA87FEBEF1000F34D100
:10044000EB1B3A0C1FFA87FC0121B3FBF2F8250CD9
:1004500002FB183345EA03450CFB08F3AB4207D90E
:10046000ED1908F1FF3002D2AB4200F2D180804694
:10047000ED1AA3B2B5FBF2F002FB105543EA0544B6
:100480000CFB00FCA44507D9E41900F1FF3302D2AC
:10049000A44500F2B8801846A4EB0C0440EA0840DA
:1004A0009DE731463046BDE8F087CEF1200405FADD
:1004B0000EF307FA0EF720FA04F83A0C25FA04F4C2
:1004C00048EA0308B4FBF2F14FEA184502FB114475
:1004D0001FFA87FC45EA044501FB0CF3AB4200FA26
:1004E0000EF409D9ED1901F1FF3080F08A80AB429A
:1004F00040F2878002393D44EB1A1FFA88F5B3FBBE
:10050000F2F002FB103345EA034500FB0CF3AB426B
:1005100007D9ED1900F1FF386FD2AB426DD902381F
:100520003D44EB1A40EA01418FE7C1F1200722FA6E
:1005300007F88B4005FA01F448EA030320FA07FEA6
:100540004FEA134CFD404EEA040EB5FBFCF94FEAAE
:100550001E440CFB19551FFA83F844EA054509FBB4
:1005600008F4AC4202FA01F200FA01FA08D9ED18D7
:1005700009F1FF3043D2AC4241D9A9F102091D442F
:100580002D1B1FFA8EFEB5FBFCF00CFB10554EEA3E
:10059000054400FB08F8A04507D9E41800F1FF3531
:1005A00029D2A04527D902381C4440EA0940A4EBCF
:1005B0000804A0FB02894C45C6464D4615D312D00F
:1005C00056B1BAEB0E0364EB050404FA07F7CB400F
:1005D0001F43CC40376074600021BDE8F0871846A7
:1005E000F8E69046E0E6C245EAD2B8EB020E69EBC7
:1005F00003050138E4E72846D7E7404691E78146FE
:10060000BEE7014678E702383C4445E7084608E77C
:10061000A8F102083D442BE7704700BF000000002E
:1006200001F0FF01102A2BDB10F0070F08D010F8A3
:10063000013B013A8B422DD010F0070F42B3F6D1A7
:10064000F0B441EA012141EA014122F007047FF0C0
:1006500000070023F0E80256083C85EA010586EA17
:10066000010685FA47F5A3FA87F586FA47F6A5FA53
:1006700087F68EB9EED1F0BC01F0FF0102F007025F
:1006800032B110F8013B013A83EA010313B1F8D10A
:100690000020704701387047002D06BF35460338EB
:1006A000073815F0010F07D1013015F4807F02BF24
:1006B000013015F4C03F0130F0BC0138704700BF75
:1006C000104B1B780BB90120704710B504464FF44E
:1006D0007A70B0FBF3F30C4A1068B0FBF3F000F053
:1006E000BFF868B90F2C01D9012010BD00222146A6
:1006F0004FF0FF3000F076F8024B5C60002010BD38
:10070000012010BD000000205C01002010B5032076
:1007100000F056F802F068FF0F498B69C3F303231A
:100720000E4AD35C03F01F03D8400D4B18608B6951
:1007300003F00F03D35C03F01F03D840094B18608C
:100740000020FFF7BDFF10B10124204610BD044674
:100750000AF062FEF9E700BF00440258ACDA000874
:100760005C01002060010020034B1B78034A1168E4
:100770000B441360704700BF00000020D802002027
:10078000014B1868704700BFD802002038B50446F6
:10079000FFF7F6FF0546B4F1FF3F02D0044B1B788C
:1007A0001C44FFF7EDFF401B8442FAD838BD00BF60
:1007B00000000020014B1868000C70470010005C1E
:1007C0000649CB6823F4E0631B041B0C000200F411
:1007D000E0600343024A1A43CA60704700ED00E03C
:1007E0000000FA0530B4144BDB68C3F30223C3F1F5
:1007F0000704042C28BF04241D1D062D13D9033B18
:10080000012505FA04F4013C2140994005FA03F35F
:10081000013B13401943002807DB0901C9B2074B0C
:10082000195430BC70470023EAE700F00F000901BB
:10083000C9B2034B1954F4E700ED00E000E400E016
:1008400014ED00E0002808DB420900F01F0001233E
:1008500003FA00F0014B43F82200704700E100E08A
:100860000138B0F1807F0AD2064B5860F021064A69
:1008700082F823100020986007221A607047012038
:10088000704700BF10E000E000ED00E0F0B5876DBC
:10089000446E856E6560C46E14B1046F456F65600B
:1008A0000468544D544EAC4218BFB4422ED0183593
:1008B000AC4243D01835AC4242D01835AC4241D09E
:1008C0001835AC4240D01835AC423FD01835AC4258
:1008D0003ED005F55675AC423CD01835AC423BD005
:1008E0001835AC423AD01835AC4239D01835AC4244
:1008F00038D01835AC4237D01835AC4236D0183520
:10090000AC4201D0002502E0012500E00125002DC8
:1009100033D0C46D04F01F053F24AC40BC600568B3
:100920002C6824F480242C60046863608368402B66
:100930001ED0036899600368DA60F0BD0125E6E720
:100940000125E4E70125E2E70125E0E70125DEE7EF
:100950000125DCE70125DAE70125D8E70125D6E7FF
:100960000125D4E70125D2E70125D0E70125CEE70F
:1009700003689A600368D960F0BD204EDFF880E01C
:10098000B44218BF744513D01436B44222D0143682
:10099000B44221D01436B44220D01436B4421FD011
:1009A0001436B4421ED01436B44202D1012500E000
:1009B000012575B1C46D04F01F050124AC407C60B5
:1009C000046863608368402B0ED0036899600368F5
:1009D000DA60F0BD0125ECE70125EAE70125E8E74B
:1009E0000125E6E70125E4E703689A600368D9601A
:1009F000F0BD00BF28000240100002401C54025805
:100A0000085402580368384A3849934218BF8B4249
:100A10002ED01832934243D01832934242D018322B
:100A2000934241D01832934240D0183293423FD083
:100A3000183293423ED002F5567293423CD018329F
:100A400093423BD0183293423AD01832934239D075
:100A50001832934238D01832934237D0183293422A
:100A600036D01832934201D0002202E0012200E089
:100A700001229AB310B4DAB2103A1D49A1FB021256
:100A8000120902F007011B4C615CC165032A21D9E0
:100A9000194A1A4004328265806D5DF8044B704734
:100AA0000122E6E70122E4E70122E2E70122E0E792
:100AB0000122DEE70122DCE70122DAE70122D8E7A2
:100AC0000122D6E70122D4E70122D2E70122D0E7B2
:100AD0000122CEE7084A1A408265DDE723F0FF03D2
:100AE0008365806D704700BF2800024010000240FF
:100AF000ABAAAAAAE0D8000800FCFFFF83699BB953
:100B0000836A012B0AD01BB1022B01D00020704751
:100B1000C36A13F0807F2ED100207047C36AB3F1FF
:100B2000C07F2AD000207047B3F5005F06D0836AEB
:100B3000022B2AD9032B16D000207047836A032B7F
:100B400003D8DFE803F01C041C0A00207047C36AC6
:100B500013F0807F15D100207047C36AB3F1C07FC6
:100B600011D000207047C36A13F0807F01D00120AC
:100B70007047002070470120704701207047012016
:100B80007047012070470120704701207047000026
:100B90000368294A2949934218BF8B4215D0143261
:100BA00093422CD0143293422BD0143293422AD049
:100BB0001432934229D01432934228D014329342F3
:100BC00001D0002202E0012200E001220ABBDAB2D9
:100BD000103A1B49A1FB021212091A491944A8290B
:100BE00000D80832184B13449B000366174B43662A
:100BF00002F01F02012303FA02F28266704701220B
:100C0000E4E70122E2E70122E0E70122DEE7012238
:100C1000DCE7DBB2083B0E4AA2FB03231B090D4AAB
:100C20001A44920002660C4A426603F01F03012236
:100C300002FA03F3836670471C54025808540258A2
:100C4000ABAAAAAAF0FBFDBF0082001080080240F8
:100C5000CDCCCCCC009600168058025801794A1EA3
:100C6000072A2AD830B403681D4C1E4DA34218BF72
:100C7000AB4215D01434A34220D01434A3421FD069
:100C80001434A3421ED01434A3421DD01434A34202
:100C90001CD01434A34201D0002302E0012300E061
:100CA0000123ABB1104B0B449B00C3660F4B036792
:100CB000012303FA02F2426730BC70470123F0E7D8
:100CC0000123EEE70123ECE70123EAE70123E8E74C
:100CD000074B0B449B00C366064B0367E8E700BF66
:100CE0001C540258085402583F96001640590258A6
:100CF0003F8200104009024070B50446FFF740FDF6
:100D0000002C00F0838105462368B249B24A934221
:100D100018BF8B420CBF012200222ED030318B42F3
:100D200067D018318B4266D018318B4265D01831AC
:100D30008B4264D018318B4263D018318B4262D021
:100D400001F556718B4260D018318B425FD018315B
:100D50008B425ED018318B425DD018318B425CD013
:100D600018318B425BD018318B425AD018318B42EC
:100D700001D0002102E0012100E00121002900F062
:100D8000A480002184F83410022184F83510002A50
:100D900049D1924A934246D01832934243D01832F6
:100DA000934240D0183293423DD0183293423AD009
:100DB0001832934237D002F55672934233D018322C
:100DC000934230D0183293422DD0183293422AD019
:100DD0001832934227D01832934224D018329342CB
:100DE00021D0183293421ED01A6822F001021A60F4
:100DF0001DE00121C2E70121C0E70121BEE7012179
:100E0000BCE70121BAE70121B8E70121B6E70121DA
:100E1000B4E70121B2E70121B0E70121AEE70121EA
:100E2000ACE70121AAE71A6822F001021A602368E0
:100E30001A6812F0010F0BD0FFF7A2FC401B052827
:100E4000F5D920236365032384F83530012070BD74
:100E50001A6863491140A268E068024320690243AE
:100E600060690243A0690243E0690243206A0243C9
:100E70000A43616A042913D01A602668756925F04F
:100E80000705636A1D43042B0FD075612046FFF7E9
:100E9000B9FDE36D03F01F023F239340836066E0DA
:100EA000E16A206B01430A43E6E7A36A1D43E36A54
:100EB000002BEAD02046FFF721FE0028E5D0402392
:100EC0006365012084F8350070BD464A4648934268
:100ED00018BF834213D01432934262D0143293422B
:100EE00061D01432934260D0143293425FD01432F6
:100EF00093425ED01432934202D1012100E00121DD
:100F000000295DD0002284F83420022284F83520A4
:100F10001A6836491140A268402A4FD0802A4AD028
:100F20000022E06842EAD002206942EAD002606909
:100F300042EAD002A06942EAD002E06942EAD00265
:100F4000206A42EA10120A431A602268284B1344AE
:100F5000284AA2FB03231B099B00E3652046FFF7F9
:100F600051FDE36D03F01F020123934043602046CF
:100F7000FFF70EFEA368802B29D0236E22791A601A
:100F8000636EA26E5A606368013B072B34D900235D
:100F9000E3662367636700206065012384F83530CA
:100FA00070BD0121ACE70121AAE70121A8E70121D9
:100FB000A6E70121A4E74FF48042B2E71022B0E790
:100FC00040236365032384F83530012070BD00237E
:100FD0006360D2E710000240280002404000024057
:100FE0003F8010FE1C540258085402580F00FEFFA8
:100FF000F8ABFDA7CDCCCCCC2046FFF72FFEE36E9F
:1010000000221A60236F626F5A60C4E7012070BD2E
:10101000002800F0198170B5044690F834000128CA
:1010200000F01481012084F8340094F83500C0B237
:10103000012807D0002384F834304FF4006363653F
:10104000012070BD022084F8350000206065206812
:101050007F4D804EA84218BFB0422FD01835A8420D
:101060002CD01835A84229D01835A84226D01835DA
:10107000A84223D01835A84220D01835A8421DD048
:1010800005F55675A84219D01835A84216D018355E
:10109000A84213D01835A84210D01835A8420DD058
:1010A0001835A8420AD01835A84207D01835A842EA
:1010B00004D0056825F00105056003E0056825F00A
:1010C000010505602046FFF7E1FB2368604A61499E
:1010D000934218BF8B4231D01832934200F0858082
:1010E0001832934200F083801832934200F08180DE
:1010F000183293427FD0183293427ED018329342F6
:101100007DD002F5567293427BD0183293427AD04A
:101110001832934279D01832934278D018329342E1
:1011200077D01832934276D01832934275D0183265
:10113000934201D0002202E0012200E00122002AB5
:101140006DD01A6822F01E0242F016021A60236C5B
:1011500023B12268136843F008031360236E1A68F2
:1011600012F4803F03D01A6842F480721A60E36E72
:101170001BB11A6842F480721A602368344A3549F8
:10118000934218BF8B4259D01832934256D018322E
:10119000934253D01832934250D0183293424DD0DC
:1011A000183293424AD01832934247D002F5567211
:1011B000934243D01832934240D0183293423DD0EC
:1011C000183293423AD01832934237D018329342B1
:1011D00034D01832934231D0183293422ED01A684C
:1011E00042F001021A60002070BD0122A7E701222F
:1011F000A5E70122A3E70122A1E701229FE701223F
:101200009DE701229BE7012299E7012297E701224E
:1012100095E7012293E7012291E701228FE71A68FF
:1012200022F00E0242F00A021A60236C002B95D0C5
:101230002268136843F0040313608FE71A6842F0D2
:1012400001021A60002070BD01207047022070BDAD
:10125000280002401000024070B50446FFF790FAE3
:10126000002C00F03881054694F83530DBB2022BB3
:1012700006D080236365002384F83430012070BDDC
:101280002368964A9649934218BF8B422ED0183253
:10129000934274D01832934273D01832934272D072
:1012A0001832934271D01832934270D01832934260
:1012B0006FD002F5567293426DD0183293426CD0C3
:1012C000183293426BD0183293426AD0183293424C
:1012D00069D01832934268D01832934267D01832DE
:1012E000934201D0002202E0012200E00122002A04
:1012F0005FD01A6822F01E021A602268536923F038
:10130000800353612668226E136823F48073136090
:101310002368724A7249934218BF8B424FD01832E9
:1013200093424CD01832934249D01832934246D05F
:101330001832934243D01832934240D0183293422D
:101340003DD002F55672934239D01832934236D0CE
:101350001832934233D01832934230D0183293422D
:101360002DD0183293422AD01832934227D0183207
:10137000934224D01A6822F001021A6023E001226D
:10138000B5E70122B3E70122B1E70122AFE701226D
:10139000ADE70122ABE70122A9E70122A7E701227D
:1013A000A5E70122A3E70122A1E701229FE701228D
:1013B0009DE71A6822F00E021A602668A3E71A68F1
:1013C00022F001021A60336813F0010F0ED0FFF70C
:1013D000D7F9401B0528F6D920236365002384F83C
:1013E0003430032384F83530012070BD23683B4A34
:1013F0003B49934218BF8B422ED01832934248D0BB
:101400001832934247D01832934246D01832934252
:1014100045D01832934244D01832934243D002F55B
:101420005672934241D01832934240D018329342C0
:101430003FD0183293423ED0183293423DD01832FA
:1014400093423CD0183293423BD01832934201D0A1
:10145000002302E0012300E00123002B33D0A16D23
:10146000E36D03F01F023F2393408B60636EA26E17
:101470005A60E36E33B11A6822F480721A60236FE7
:10148000626F5A60002084F83400012384F83530FC
:1014900070BD0123E1E70123DFE70123DDE701233D
:1014A000DBE70123D9E70123D7E70123D5E70123B0
:1014B000D3E70123D1E70123CFE70123CDE70123C0
:1014C000CBE70123C9E7A16DE36D03F01F02012300
:1014D00093404B60CAE7012070BD00BF2800024066
:1014E00010000240002800F0008108B5034690F883
:1014F0003520D2B2022A03D080224265012008BDE5
:1015000002687C487C498A4218BF82420CBF012194
:1015100000212ED03030824264D01830824263D015
:101520001830824262D01830824261D01830824234
:1015300060D0183082425FD000F5567082425DD094
:10154000183082425CD0183082425BD01830824220
:101550005AD01830824259D01830824258D01830B0
:10156000824257D01830824201D0002002E0012090
:1015700000E00120002855D0042083F83500002920
:101580004AD15E4B9A4247D018339A4244D018331E
:101590009A4241D018339A423ED018339A423BD0F7
:1015A00018339A4238D003F556739A4234D0183320
:1015B0009A4231D018339A422ED018339A422BD007
:1015C00018339A4228D018339A4225D018339A42B9
:1015D00022D018339A421FD0136823F001031360FE
:1015E000002008BD0120C5E70120C3E70120C1E7B5
:1015F0000120BFE70120BDE70120BBE70120B9E7DB
:101600000120B7E70120B5E70120B3E70120B1E7EA
:101610000120AFE70120ADE7136823F00103136059
:10162000002008BD116821F00E0111601A683249CE
:1016300030488A4218BF82422FD018318A422CD0BB
:1016400018318A4229D018318A4226D018318A426C
:1016500023D018318A4220D018318A421DD001F59A
:1016600056718A4219D018318A4216D018318A42EE
:1016700013D018318A4210D018318A420DD0183157
:101680008A420AD018318A4207D018318A4204D0DF
:10169000116821F00101116003E0116821F00101DE
:1016A0001160196E0A6822F480720A60986DDA6D12
:1016B00002F01F0101228A4042605A6E996E516009
:1016C000DA6E32B1116821F4807111601A6F596FAE
:1016D0005160002283F83420012283F835201A6DEE
:1016E0002AB118469047002008BD0120704700200D
:1016F00008BD00BF10000240280002404000024028
:10170000F0B583B00446002301939A4B1D689A4BB1
:10171000A3FB0535AD0A866D3768306823689749A5
:10172000974A934218BF8B420CBF012200222ED051
:1017300030318B4267D018318B4266D018318B42E2
:1017400065D018318B4264D018318B4263D0183188
:101750008B4262D001F556718B4260D018318B42BA
:101760005FD018318B425ED018318B425DD018317A
:101770008B425CD018318B425BD018318B425AD0EF
:1017800018318B4201D0002102E0012100E001214B
:10179000002900F06382E16D01F01F000821814003
:1017A0000F425CD0002A48D1764A934245D0183285
:1017B000934242D0183293423FD0183293423CD0E9
:1017C0001832934239D01832934236D002F556720D
:1017D000934232D0183293422FD0183293422CD0F9
:1017E0001832934229D01832934226D018329342AD
:1017F00023D01832934220D0183293421DD01A6859
:10180000C2F3C0021CE00121C2E70121C0E70121AF
:10181000BEE70121BCE70121BAE70121B8E70121B8
:10182000B6E70121B4E70121B2E70121B0E70121C8
:10183000AEE70121ACE70121AAE71A68C2F38002F2
:101840006AB11A6822F004021A60E36D03F01F0205
:1018500008239340B360636D43F001036365E26D59
:1018600002F01F0227FA02F313F0010F42D023689F
:10187000424843498B4218BF83420CBF01210021DB
:101880002CD03030834229D01830834226D01830F3
:10189000834223D01830834220D0183083421DD099
:1018A000183083421AD000F55670834216D0183093
:1018B000834213D01830834210D0183083420DD0A9
:1018C000183083420AD01830834207D01830834240
:1018D00004D01830834201D01B6802E05969C1F37B
:1018E000C01139B1012303FA02F2B260636D43F013
:1018F00002036365E26D02F01F02042303FA02F2A1
:1019000017424AD023681D481D498B4218BF8342A5
:101910000CBF0121002137D03030834234D0183041
:10192000834231D0183083422ED0183083422BD0DE
:101930001830834228D01830834225D000F55670E5
:10194000834221D0183083421ED0183083421BD0EE
:101950001830834218D01830834215D01830834293
:1019600012D0183083420FD0183083420CD01B683D
:101970000DE000BF5C010020B5814E1B100002404D
:1019800028000240400002401968C1F3400121B123
:10199000B260636D43F004036365E36D03F01F03FE
:1019A000102202FA03F31F4259D02068A74AA8491F
:1019B000904218BF88422ED0183290422BD0183255
:1019C000904228D01832904225D01832904222D02E
:1019D000183290421FD0183290421CD002F5567235
:1019E000904218D01832904215D01832904212D03E
:1019F000183290420FD0183290420CD018329042D8
:101A000009D01832904206D01832904203D00268B2
:101A1000C2F3800202E00268C2F3C002FAB1B3600E
:101A200023681A6812F4802F0DD01B6813F4002F5E
:101A300004D1236C9BB12046984710E0A36C73B18E
:101A4000204698470BE01A6812F4807F03D11A6889
:101A500022F008021A60236C0BB120469847E36D10
:101A600003F01F03202202FA03F31F4200F08E80CE
:101A70002068764A7649904218BF88422ED01832A4
:101A800090422BD01832904228D01832904225D064
:101A90001832904222D0183290421FD01832904211
:101AA0001CD002F55672904218D01832904215D0D0
:101AB0001832904212D0183290420FD01832904211
:101AC0000CD01832904209D01832904206D0183209
:101AD000904203D00268C2F3400202E00268C2F3FF
:101AE0000012002A52D0B36094F83530DBB2042BD8
:101AF0000ED023681A6812F4802F35D01B6813F4B7
:101B0000002F2CD1636C002B40D0204698473DE03D
:101B10002268136823F0160313602268536923F0C8
:101B200080035361236CB3B12268136823F0080368
:101B30001360E36D03F01F023F239340B360002363
:101B400084F83430012384F83530236D002B7BD0AA
:101B50002046984778E0A36C002BE5D1E9E7E36BDA
:101B6000A3B12046984711E01A6812F4807F09D18A
:101B70001A6822F010021A60002384F8343001231E
:101B800084F83530E36B0BB120469847636D002B2A
:101B90005AD0636D13F0010F52D0042384F835300E
:101BA00023682A4A2A49934218BF8B422FD0183201
:101BB00093422CD01832934229D01832934226D027
:101BC0001832934223D01832934220D018329342D5
:101BD0001DD002F55672934219D01832934216D096
:101BE0001832934213D01832934210D018329342D5
:101BF0000DD0183293420AD01832934207D01832CF
:101C0000934204D01A6822F001021A6003E01A68B5
:101C100022F001021A60019B013301939D4204D31B
:101C200023681B6813F0010FF5D1002384F83430CA
:101C300023681B6813F0010F0CD0032384F83530A0
:101C4000E36C0BB12046984703B0F0BD280002407A
:101C500010000240012384F83530F1E7A14DA24F76
:101C6000AB4218BFBB4213D01435AB422BD0143556
:101C7000AB422AD01435AB4229D01435AB4228D020
:101C80001435AB4227D01435AB4202D1012100E01C
:101C900001210029D8D01F68E16D01F01F01042542
:101CA0008D40284264D017F0040F61D0756017F49E
:101CB000004F18D017F4803F0FD1A36C002BC3D076
:101CC00020469847C0E70121E3E70121E1E7012130
:101CD000DFE70121DDE70121DBE7236C002BB3D037
:101CE00020469847B0E717F0200F3AD123687F4A83
:101CF0007F49934218BF8B422FD0183293422CD089
:101D00001832934229D01832934226D01832934287
:101D100023D01832934220D0183293421DD002F5BE
:101D20005672934219D01832934216D01832934209
:101D300013D01832934210D0183293420DD018327B
:101D400093420AD01832934207D01832934204D0FB
:101D50001A6822F004021A6003E01A6822F00802EE
:101D60001A60236C002B3FF46FAF204698476BE757
:101D700002258D40284262D017F0020F5FD07560B7
:101D800017F4004F10D017F4803F06D1636C002B7E
:101D90003FF45AAF2046984756E7E36B002B3FF4D9
:101DA00053AF204698474FE717F0200F40D12368E4
:101DB0004E4A4F49934218BF8B422FD0183293425C
:101DC0002CD01832934229D01832934226D01832A0
:101DD000934223D01832934220D0183293421DD020
:101DE00002F55672934219D01832934216D0183227
:101DF000934213D01832934210D0183293420DD030
:101E0000183293420AD01832934207D018329342C4
:101E100004D01A6822F00A021A6003E01A6822F05D
:101E200014021A60002384F83430012384F835301A
:101E3000E36B002B3FF408AF2046984704E70825E2
:101E400005FA01F108423FF4FFAE17F0080F3FF426
:101E5000FBAE7ABB274A93422CD01832934229D04A
:101E60001832934226D01832934223D0183293422C
:101E700020D0183293421DD002F55672934219D0E9
:101E80001832934216D01832934213D0183293422C
:101E900010D0183293420DD0183293420AD0183223
:101EA000934207D01832934204D01A6822F00E02EF
:101EB0001A6003E01A6822F01C021A60E36D03F056
:101EC0001F03012202FA03F373606265002384F8A2
:101ED000343084F83520E36C002B3FF4B5AE204657
:101EE0009847B1E61C540258085402582800024092
:101EF0001000024040000240406D7047704770473C
:101F000010B57F4B1B6913F4803F1BD07D4B1B78B2
:101F1000DBB2012B00F087807A4B1C78E4B2072CEF
:101F200018BF022C00F0A480032C00F0A580043C14
:101F3000E4B2022C06D90022724B1A704FF48032A0
:101F40006F4B5A616E4BD3F8103113F4803F1CD0A5
:101F50006C4B1B78DBB2042B00F09380694B1C7830
:101F6000E4B2072C18BF052C00F0B280062C00F05C
:101F7000B380013CE4B2022C07D90022614B1A70F5
:101F80004FF480325E4BC3F814215D4B1B6913F490
:101F9000DC0316D05B4A91691943916158494B6142
:101FA0001378DBB2012B00F09C80072B18BF022BAB
:101FB00000F09D80534B18690022524B1A70FFF7B6
:101FC0009EFF4F4BD3F8103113F4DC0319D04D4969
:101FD0008A691A4342F000428A61494AC2F81431C0
:101FE0000B78DBB2042B00F08480072B18BF052B85
:101FF00000F08480434B18690022424B1A70FFF7AF
:102000007EFF404B1B786BB93D4BDA6822F4DE0251
:10201000DA60D3F80C2122F4DE02C3F80C2100228E
:10202000384B1A7510BD374B5A68013A5A605B68D5
:1020300083B1344CE068FFF761FF4FF48032304BDE
:102040005A61E3680133E360E068A268012100F0AF
:102050005BF877E72B4B4FF0FF32DA6000221A7003
:10206000D868FFF74BFF4FF48032254B5A6169E780
:102070000120FFF743FF5AE7224B1869FFF73EFFA5
:1020800055E7204B5A68013A5A605B688BB11D4C8A
:10209000E068FFF733FF4FF48032194BC3F8142187
:1020A000E3680133E360E068A268022100F02CF8E5
:1020B0006BE7144B4FF0FF32DA6000221A70D868D9
:1020C000FFF71CFF4FF480320D4BC3F814215CE77F
:1020D0000220FFF713FF4CE70A4B1869FFF70EFFCA
:1020E00047E71346D0684FF0FF32DA6064E701201B
:1020F00062E7C8684FF0FF32CA607DE702207BE7E5
:1021000000200052DC02002030B411F0010F0FD08B
:10211000154BDC6824F4E664DC60DC6842EA0025E8
:102120002C4344F00404DC60DC6844F08004DC6090
:1021300011F0020F15D00C4BD3F80C1121F4E6610D
:10214000C3F80C11D3F80C1142EA00220A4342F002
:102150000402C3F80C21D3F80C2142F08002C3F82A
:102160000C2130BC704700BF00200052F0B583B096
:1021700000233BE0092600E0002606FA0EF6354370
:1021800002346F4E46F824506E4C2568D44305EA5D
:1021900004064F6817F4803F01D042EA0506694DF6
:1021A0002E606E6804EA06054F6817F4003F01D000
:1021B00042EA0605634E75604FF0B0452D6804EAAB
:1021C00005064F6817F4801F01D042EA05064FF05C
:1021D000B0452E606D682C404E6816F4001F01D08B
:1021E00042EA05044FF0B042546001330A6832FA03
:1021F00003F400F0A38001259D402A40F5D04C68EF
:10220000122C18BF022C12D14FEAD30E0EF1080E79
:1022100050F82E4003F00706B6000F27B74024EA17
:1022200007040F6907FA06F6344340F82E400668A3
:102230004FEA430E032404FA0EF4E44326404F68A9
:1022400007F0030707FA0EF73E4306604E68771E55
:10225000112E18BF012F01D9122E0FD186682640EA
:10226000CF6807FA0EF73E438660466826EA050502
:102270004E68C6F300169E4035434560C5682C4045
:102280008D6805FA0EF52C43C4604C6814F0805F2D
:10229000ABD02D4CD4F8F45045F00205C4F8F450FE
:1022A000D4F8F44004F002040194019C9C08A61C9C
:1022B000234D55F8265003F003064FEA860E0F26ED
:1022C00006FA0EF625EA0605204FB8423FF454AF51
:1022D0001F4EB04222D006F58066B04220D006F5EF
:1022E0008066B0421ED006F58066B0421CD006F56E
:1022F0008066B0421AD006F58066B04218D006F566
:102300008066B04216D006F58066B04214D006F55D
:102310008066B0423FF42EAF0A262EE701262CE756
:1023200002262AE7032628E7042626E7052624E7CF
:10233000062622E7072620E708261EE703B0F0BDA1
:102340000004005880000058004402580000025861
:102350000004025812B90904816170478161704715
:1023600008B5054B9B68034200D108BD024B98603D
:1023700008F0EEFAF9E700BF80000058704700004F
:1023800008B5054BD8681A6822EA00021A6058603E
:10239000FFF7F4FF08BD00BF006502582DE9F047C4
:1023A00082B0D0F80080CA00521A930003445A6DDC
:1023B0001B6D9A4255D8C1469B1AC1EBC104A200BD
:1023C0000244526C934200D81A460C46074602F16A
:1023D000030A4FEA9A0A15E006F1030A4FEA9A0A3D
:1023E000E3001B1B9D003D44A96C3B7C0093B3B2F2
:1023F000E2B2404606F032FDAB6C3344AB646B6D29
:102400001E446E6509EB441303F510639B699BB290
:102410009A4512D8E3001B1B9A003A44516D136D84
:1024200099420AD24BB15B1AC4EBC4018A003A4408
:10243000566CB342D0D81E46CEE7E3001B1B980073
:1024400007443A6D7B6D9A420FD804F00F040123C4
:10245000A340D8F8344824EA0304C8F834480020DC
:1024600000E0012002B0BDE8F0870020FAE7F0B5F7
:102470008BB0002800F091800446056890F8BD33C9
:1024800023B3032384F8BD33EB6B13F4807F01D1B6
:1024900000232361206806F09DFA254655F8107B3D
:1024A0006E460FCD0FC60FCD0FC695E8030086E828
:1024B0000300231D0ECB384606F0CAF958B102239B
:1024C00084F8BD33012528460BB0F0BD80F8BC333D
:1024D0000AF046F8D5E70021206806F081FA0023CB
:1024E00015E0D900C81A82002244012082F83D007C
:1024F00082F83C30A2F84230002082F83F0050645D
:102500009064CA1A9100214408650133DBB2656802
:10251000AB42E6D3002315E0D800C11A8A0022445A
:10252000002182F8FD1182F8FC3182F8FF11C2F817
:102530000412C2F80812C21A90002044C0F8101207
:102540000133DBB29D42E7D8254655F8107B6E4635
:102550000FCD0FC60FCD0FC695E8030086E8030028
:10256000231D0ECB384606F081FA054660B90023DC
:1025700084F83830012384F8BD33636A012B08D016
:10258000206806F016FE9EE7022384F8BD3301257D
:1025900099E7204600F0D6FCF2E7012593E70268B0
:1025A00090F8BC33012B19D010B5012380F8BC334F
:1025B000836A012B0AD00446006806F0EEFD20680D
:1025C00006F002FA002084F8BC0310BD8369012BD9
:1025D000F1D0936B43F480339363ECE702207047B0
:1025E00070B505460E460368196C03EB461303F5F8
:1025F0003064A3680269012A07D0364A914257D055
:10260000F1B20AF007F8002070BD13F0080F14D0E3
:10261000314A914205D913F4004F02D04FF40043E0
:10262000A360284609F0EEFF05F5717201212868C4
:1026300006F01CFE0823A360E5E713F0200F30D15D
:1026400013F0280FDFD1244A914202D913F4004F2E
:102650002AD1F200921B93002B44D3F80422216963
:10266000C1F31201521AC3F81422D3F80412D3F89A
:1026700008220A44C3F80822F1B2284609F0CAFF2A
:10268000002EC0D1C6EBC606B3002B44D3F81032DF
:10269000002BB8D105F571720121286806F0E6FD1E
:1026A000B1E72023A360AEE74FF40043A360AAE79D
:1026B00013F4004F09D113F0200F01D02023A360A1
:1026C000F1B2284609F0A6FF9DE74FF40043A3604E
:1026D00099E700BF0A31544F0A30544F38B50446C9
:1026E00003681D6C03EB411101F530618A680369D1
:1026F000012B0DD0124B9D4214D0204609F082FFD1
:10270000104B9D4202D92369012B12D0002038BD05
:102710000C4B9D42F1D912F4004FEED04FF4004320
:102720008B60EAE712F4004FE7D04FF400438B6070
:10273000E3E704F571720121206806F097FDE5E7F3
:102740000A31544F0A30544F2DE9F84F04460568BA
:10275000284606F06AFD08B1BDE8F88F2F46064608
:10276000206806F032FD0028F6D0206806F02DFD26
:1027700010F0020F04D02268536903F00203536182
:10278000206806F022FD10F4002F40F091802068B0
:1027900006F01BFD10F4802F40F0DE80206806F06C
:1027A00014FD0028C0F25081206806F00EFD10F4E0
:1027B000006F0AD0D5F8083813F0010F40F05E81A1
:1027C0002268536903F400635361206806F0FDFC3E
:1027D00010F0006F15D02268536903F00063536155
:1027E00094F8F433002B40F04D81012184F8F41368
:1027F00023685B6DC3F38303C4F8F833204600F00D
:10280000B5FB206806F0E1FC10F4805F40F03E81EB
:10281000206806F0DAFC10F4005F40F09081206838
:1028200006F0D3FC10F0100F14D02268936923F047
:10283000100393612E6A06F00F07C6F34343022B81
:1028400000F09581062B00F0B3812268936943F074
:1028500010039361206806F0B8FC10F0080F40F0F8
:10286000B981206806F0B1FC10F4801F40F0BB81F4
:10287000206806F0AAFC10F4001F40F0BE8120681A
:1028800006F0A3FC10F0804F40F0C181206806F0F4
:102890009CFC10F0040F3FF45FAF23685D6815F0F7
:1028A000040F40F0BD8123685A6815435D6053E70B
:1028B000206806F08EFC8046B14625E007EB491300
:1028C0000122C3F8082B49462046FFF789FE2BE07A
:1028D00049462046FFF702FF07EB49130822C3F8D9
:1028E000082B24E007EB49132022C3F8082B1AF425
:1028F000005F05D007EB49134FF40052C3F8082BD3
:1029000009F101094FEA5808B8F1000F3FF43FAF51
:1029100018F0010FF4D05FFA89F1206806F069FC25
:10292000824610F0010FC9D11AF0080FD0D11AF069
:10293000100F04D007EB49131022C3F8082B1AF02C
:10294000200FD4D02369012BCCD104F57172012161
:10295000206806F08BFCC5E7206806F042FC804644
:10296000B14631E04FEAC902A2EB090293002344C9
:10297000596C9A6C0A449A6449E01AF0080F04D022
:1029800007EB49130822C3F808291AF0100F04D0E6
:1029900007EB49131022C3F808291AF0400F04D09E
:1029A00007EB49134022C3F808291AF0020F04D09C
:1029B00007EB49130222C3F808291AF0800F3ED111
:1029C00009F101094FEA5808B8F1000F3FF4E6AEEB
:1029D00018F0010FF4D05FFA89FB5946206806F021
:1029E00011FC824610F0010FC7D009F00F0301213E
:1029F00001FA03F2D7F8343823EA0203C7F834386F
:102A000007EB4913C3F8081923698B42AAD059462A
:102A1000204609F00BFE2369012BAED1B9F1000F5E
:102A2000ABD1C9EBC902930023441B6D002BA4D189
:102A300004F571720121206806F018FC9DE74946F3
:102A40002046FFF7ABFCBBE7D5F8043823F00103C1
:102A5000C5F8043894F8F433012B08D0204609F067
:102A600025FE2268536903F0004353619CE6002170
:102A700084F8F413204600F079FAF2E7204609F0D2
:102A8000FDFD9DE6204609F0F9FDBAE605F5006872
:102A9000D8F8043023F00103C8F80430102120686E
:102AA00005F0B6FF14E007EB46134FF67F31C3F88D
:102AB0000819D3F8002922F40012C3F80029C3F83A
:102AC000081BD3F8002B22F40012C3F8002B0136A8
:102AD00063689E42E7D3D8F81C3043F00113C8F86E
:102AE0001C30236BEBB1D8F8843043F00B03C8F8EB
:102AF0008430D8F8443043F00B03C8F84430D5F89C
:102B0000003823F4FE63C5F8003804F57172217CA7
:102B1000206806F0ABFB2268536903F480535361CD
:102B200076E6D8F8142042F22B031343C8F8143089
:102B3000D8F8103043F00B03C8F81030DFE72068F6
:102B400006F078FB206806F05DF8E060266800F08B
:102B50007FFF227B0146304605F0C0FE204609F08B
:102B600076FD2268536903F40053536157E647F634
:102B7000F0731E423FF469AE4FEAC709A9EB0703A1
:102B80004FEA8308A0443609C6F30A02D8F80812AF
:102B9000284606F083FAC6F30A06D8F8083233440A
:102BA000C8F80832D8F814321E44C8F814624CE64B
:102BB000082204F57171284606F070FAC6F30A1669
:102BC000FB00D91B8A002244D2F814321E44C2F8FA
:102BD00014623AE6204609F034FD2268536903F096
:102BE000080353613DE60021204609F06BFD226891
:102BF000536903F4801353613AE60021204609F03B
:102C00005BFD2268536903F40013536137E62046E5
:102C100009F05EFD2268536903F08043536135E695
:102C2000204609F05BFD3EE690F8BC33012B01D154
:102C30000220704710B50446012380F8BC3380F8A9
:102C40003810006806F099FA002084F8BC0310BD23
:102C5000F8B511F0800F1ED101F00F06F500AF1B83
:102C6000BC00274604F5FC74044404343E46064484
:102C7000002586F8FD5101F00F012170A260E3707C
:102C8000627802B1E180022B14D090F8BC33012BA2
:102C900013D10220F8BD01F00F06F500AF1BBC00F8
:102CA00027463834044404343E460644012586F859
:102CB0003D50E0E700232371E7E70546012380F854
:102CC000BC332146006805F0ADFF002085F8BC0349
:102CD000F8BD38B511F0800F17D101F00F04E200F4
:102CE000151BAB001D4603F5FC73034404332C464F
:102CF0000444002284F8FD2101F00F01197090F8BE
:102D0000BC23012A10D1022038BD01F00F04E200DB
:102D1000151BAB001D463833034404332C460444D2
:102D2000012284F83D20E7E70446012280F8BC2315
:102D30001946006805F0BEFF002084F8BC0338BDCA
:102D400070B501F00F05EE00711B8C0004F5FC74EA
:102D50000444211D761BB4000444C4F80822C4F8BE
:102D600010320023C4F8143284F8FD3184F8FC5189
:102D70000369012B06D065B1DAB2006806F082F86B
:102D8000002070BDC5EBC506B4000444C4F80C2295
:102D9000F1E7DAB2006805F0D5FFF1E701F00F01C5
:102DA000C1EBC1018B001844D0F81402704770B514
:102DB00001F00F05EE00711B8C0038340444211D16
:102DC000761BB4000444A2642365002363650123D9
:102DD00084F83D3084F83C500369012B06D05DB186
:102DE000DAB2006806F04EF8002070BDC5EBC506EB
:102DF000B4000444E264F2E7DAB2006805F0A2FF2E
:102E0000F2E738B501F00F0543689D4238D811F05C
:102E1000800F15D1CA00541AA3001C4603F5FC7399
:102E20000344043322460244002182F8FD110122AA
:102E30009A701D7090F8BC23012A0DD1022038BD74
:102E4000EA00511B8B001946383303440433014414
:102E5000012281F83D20EAE70446012280F8BC23E4
:102E60001946006806F02EF91DB1002084F8BC0355
:102E700038BD04F57172217C206806F0F7F9F4E79B
:102E8000012038BD01F00F03426893422FD810B5DE
:102E900011F0800F14D1DA00D41AA1000C4601F50C
:102EA000FC71014404310444002284F8FD21002215
:102EB0008A700B7090F8BC33012B0DD1022010BD2D
:102EC000DA00D41AA1000C4638310144043104441C
:102ED000012284F83D20EAE70446012380F8BC3350
:102EE000006806F01CF9002084F8BC0310BD012026
:102EF000704730B40468606A29B10D46A36A00EBDC
:102F0000134000230CE040EA0240A06212E003F10B
:102F1000400104EB8101496800EB11400133DBB251
:102F2000691E8B42F3D340EA024005F13F0104EBF6
:102F300081014860002030BC70470368596200205E
:102F400070470000024603680121C0F8FC1300200E
:102F500082F8F4039A6942F000629A61596D024A5C
:102F60000A435A65704700BF03000010704770475E
:102F7000124BDB6813F0040F07D1104BDB6803F032
:102F80000703834201D00120704710B50B4AD36874
:102F900023F007031843D060FDF7F2FB0446074B0C
:102FA0005B6813F4005F07D1FDF7EAFB001BB0F587
:102FB0007A7FF4D9032010BD002010BD00480258CC
:102FC000024AD36843F08073D360704700480258C8
:102FD0007047000008B5174B1B6813F0100F06D0A0
:102FE0004FF0B043D3F8883013F4803F0CD1114B2D
:102FF0001B6813F4803F06D04FF0B043D3F88830FD
:1030000013F4803F0BD108BDFFF7B1FF4FF0B04282
:10301000D2F8883043F48033C2F88830E7E7FFF70E
:10302000D7FF4FF0B042D2F8883043F48033C2F873
:103030008830E8E700480258002800F0CB8238B515
:103040000446036813F0010F36D0A94A136903F050
:103050003803926A102B26D0182B20D06368B3F562
:10306000803F4FD0002B53D1A14B1A6822F48032FD
:103070001A601A6822F480221A606368002B5ED0FE
:10308000FDF77EFB05469A4B1B6813F4003F13D1F6
:10309000FDF776FB401B6428F5D9032038BD02F00C
:1030A0000302022ADAD1924B1B6813F4003F03D0CB
:1030B0006368002B00F09082236813F0020F7DD02C
:1030C0008B4A1369926A13F038034AD0182B45D003
:1030D000E368002B00F0B88085490A6822F01902E5
:1030E00013430B60FDF74CFB0546814B1B6813F047
:1030F000040F40F09180FDF743FB401B0228F4D9F8
:10310000032038BD7A4A136843F480331360B4E770
:10311000B3F5A02F09D0764B1A6822F480321A60DA
:103120001A6822F480221A60A7E7714B1A6842F4E9
:1031300080221A601A6842F480321A609DE7FDF717
:103140001FFB05466A4B1B6813F4003FB4D0FDF724
:1031500017FB401B6428F5D9032038BD12F0030F7C
:10316000B6D1634B1B6813F0040F03D0E368002B48
:1031700000F034825E4A136823F01903E1680B43C0
:103180001360FDF7FDFA0546594B1B6813F0040F59
:1031900006D1FDF7F5FA401B0228F5D9032038BD0A
:1031A000FDF708FB41F2030398422CD8504A5368BC
:1031B00023F47C33216943EA01335360236813F01D
:1031C000100F71D04A4A136903F03803926A082B32
:1031D00052D0182B4CD0E369002B00F0A380444A56
:1031E000136843F080031360FDF7CAFA0546404BAD
:1031F0001B6813F4807F7DD1FDF7C2FA401B0228C3
:10320000F5D9032038BD3A4A536823F0FE432169BB
:1032100043EA01635360D1E7FDF7CCFA41F20303BF
:10322000984208D8324A536823F47C33216943EA30
:1032300001335360C2E72E4A536823F0FE432169ED
:1032400043EA01635360B9E7294A136823F0010395
:103250001360FDF795FA0546254B1B6813F0040F24
:10326000ACD0FDF78DFA401B0228F5D9032038BDFC
:1032700002F00302012AAED11D4B1B6813F4807FBC
:1032800004D0E369802B01D0012038BDFDF792FA0C
:1032900041F20303984222D8154A536823F0F843B9
:1032A000216A43EA81635360236813F0080F61D0F9
:1032B0006369002B4AD00E4A536F43F001035367F2
:1032C000FDF75EFA05460A4B5B6F13F0020F51D112
:1032D000FDF756FA401B0228F5D9032038BD044AF1
:1032E000D36823F07C53216A43EA0163D360DBE7B0
:1032F00000440258FDF75EFA41F20303984208D8F1
:10330000AE4A536823F0F843216A43EA816353606D
:10331000CAE7AA4AD36823F07C53216A43EA0163CF
:10332000D360C1E7A54A136823F080031360FDF75B
:1033300027FA0546A14B1B6813F4807FB4D0FDF734
:103340001FFA401B0228F5D9032038BD9B4A536F52
:1033500023F001035367FDF713FA0546974B5B6FA4
:1033600013F0020F06D0FDF70BFA401B0228F5D927
:10337000032038BD236813F0200F29D0A3699BB127
:103380008E4A136843F480531360FDF7F9F905463C
:103390008A4B1B6813F4005F1AD1FDF7F1F9401B4B
:1033A0000228F5D9032038BD844A136823F48053DA
:1033B0001360FDF7E5F90546804B1B6813F4005FC9
:1033C00006D0FDF7DDF9401B0228F5D9032038BDF2
:1033D000236813F0040F21D1636A002B00F00081F1
:1033E000764A126902F03802182A00F0FB80022B9C
:1033F00075D0724A136823F080731360FDF7C0F92B
:1034000004466E4B1B6813F0007F00F0E180FDF76F
:10341000B7F9001B0228F4D9032038BD684A1368A5
:1034200043F480731360FDF7ABF90546644B1B68EA
:1034300013F4807F06D1FDF7A3F9401B6428F5D96A
:10344000032038BDA368012B1CD00BBB5B4B1A6F4C
:1034500022F001021A671A6F22F004021A67A368A9
:1034600063B3FDF78DF90546544B1B6F13F0020F44
:10347000B2D1FDF785F9401B41F288339842F3D968
:10348000032038BD4D4A136F43F001031367E6E78D
:10349000052B09D0494B1A6F22F001021A671A6FE7
:1034A00022F004021A67DAE7444B1A6F42F0040272
:1034B0001A671A6F42F001021A67D0E7FDF760F948
:1034C00005463E4B1B6F13F0020F85D0FDF758F9F0
:1034D000401B41F288339842F3D9032038BD374A64
:1034E000136823F080731360FDF74AF90546334BE8
:1034F0001B6813F0007F06D0FDF742F9401B02283D
:10350000F5D9032038BD2D4B996A2E4A0A40A16A8D
:10351000E06A41EA00110A439A62226B013AC2F35F
:103520000802616B0139490289B20A43A16B013972
:10353000090401F4FE010A43E16B0139090601F0B7
:10354000FE410A431A63DA6A22F00102DA62596B19
:103550001D4A0A40A16C42EAC1025A63DA6A22F0AB
:103560000C02216C0A43DA62DA6A22F00202616C10
:103570000A43DA62DA6A42F48032DA62DA6A42F4E0
:103580000032DA62DA6A42F48022DA62DA6A42F0FF
:103590000102DA621A6842F080721A60FDF7F0F8F0
:1035A0000446064B1B6813F0007F0FD1FDF7E8F8C7
:1035B000001B0228F5D9032038BD00BF0044025883
:1035C000004802580CFCFFFF0700FFFF002038BD39
:1035D000002038BD01207047012038BD012038BDD2
:1035E000002038BD012038BD734B1B6903F0380340
:1035F000102B00F0DF80182B11D00BB16F487047F3
:103600006D4B1B6813F0200F01D16D4870476A4B5A
:103610001868C0F3C1006A4B23FA00F0704710B479
:10362000654A916A01F00301906AC0F30510D46AFB
:1036300004F00104536BC3F3CC0303FB04F307EE64
:10364000903AF8EE677A002800F09480012966D05D
:10365000F9B1022900F0918007EE100AF8EE476AEE
:103660009FED586A86EE267A534B1B6BC3F3080313
:1036700006EE903AF8EE666A9FED536A67EE867A38
:1036800076EEA77AF7EE006A77EEA67A27EE277A2B
:1036900061E0494B1B6813F0200F23D046490A68AC
:1036A000C2F3C102464BD34007EE103AF8EE476A28
:1036B00007EE100AB8EE476A86EE867A0B6BC3F304
:1036C000080306EE903AF8EE666A9FED3F6A67EEF1
:1036D000867A76EEA77AF7EE006A77EEA67A27EE7C
:1036E000277A38E007EE100AF8EE476A9FED376A4E
:1036F00086EE267A304B1B6BC3F3080306EE903A36
:10370000F8EE666A9FED306A67EE867A76EEA77A03
:10371000F7EE006A77EEA67A27EE277A1BE007EE2F
:10372000100AF8EE476A9FED276A86EE267A224B4A
:103730001B6BC3F3080306EE903AF8EE666A9FED42
:10374000226A67EE867A76EEA77AF7EE006A77EE5F
:10375000A67A27EE277A184B1B6BC3F34623013357
:1037600007EE903AF8EE677AC7EE276AFCEEE67A43
:1037700017EE900A5DF8044B704707EE100AF8EE5A
:10378000476A9FED136A86EE267A0B4B1B6BC3F3D9
:10379000080306EE903AF8EE666A9FED0B6A67EE54
:1037A000867A76EEA77AF7EE006A77EEA67A27EEAB
:1037B000277AD0E7074870470044025800093D00C7
:1037C0000090D0030024744A000000390024744C97
:1037D0000024F44B0048E801002800F02B8170B56C
:1037E0000446964B1B6803F00F038B420CD2934A9E
:1037F000136823F00F030B431360136803F00F03E8
:10380000994201D0012070BD236813F0040F0CD041
:1038100022698B4B9B6903F070039A4205D9884853
:10382000836923F070031A438261236813F0080F41
:103830000CD06269824BDB6903F070039A4205D9B0
:103840007F48C36923F070031A43C261236813F0F1
:10385000100F0CD0A2697A4BDB6903F4E0639A4243
:1038600005D97748C36923F4E0631A43C26123682A
:1038700013F0200F0CD0E269714B1B6A03F0700348
:103880009A4205D96E48036A23F070031A43026214
:10389000236813F0020F0CD0E268694B9B6903F0B8
:1038A0000F039A4205D96648836923F00F031A4330
:1038B00082610D46236813F0010F41D0604A93697D
:1038C00023F47063A1680B4393616368022B23D0D8
:1038D000032B27D0012B2CD0594A126812F0040F69
:1038E00000F0AA8056490A6922F0070213430B61CF
:1038F000FCF746FF0646524B1B6903F0380362682B
:10390000B3EBC20F1CD0FCF73BFF801B41F28833A6
:103910009842F0D9032070BD126812F4003FE1D143
:10392000012070BD464A126812F0007FDAD10120F2
:1039300070BD434A126812F4807FD3D1012070BD5C
:10394000236813F0020F0CD0E2683D4B9B6903F033
:103950000F039A4205D23A498B6923F00F031A43A9
:103960008A61364B1B6803F00F039D420CD2334A29
:10397000136823F00F032B431360136803F00F0346
:103980009D4201D0012070BD236813F0040F0CD0BC
:1039900022692B4B9B6903F070039A4205D2284998
:1039A0008B6923F070031A438A61236813F0080FB0
:1039B0000CD06269224BDB6903F070039A4205D296
:1039C0001F49CB6923F070031A43CA61236813F0BF
:1039D000100F0CD0A2691A4BDB6903F4E0639A4222
:1039E00005D21749CB6923F4E0631A43CA612368FF
:1039F00013F0200F0CD0E269114B1B6A03F0700327
:103A00009A4205D20E490B6A23F070031A430A62E8
:103A1000FFF7EAFD0A4B9B69C3F30323094AD35C12
:103A200003F01F03D840084B1860084B1868FCF7D8
:103A300047FE70BD01207047012070BD002000527C
:103A400000440258ACDA00085C01002004000020A9
:103A500008B501F049FA064B9B6903F00F03054ACC
:103A6000D35C03F01F03D840034B186008BD00BFB0
:103A700000440258ACDA00086001002008B5FFF7E6
:103A8000E7FF054BDB69C3F30213044AD35C03F081
:103A90001F03D84008BD00BF00440258ACDA00083C
:103AA00008B5FFF7D5FF054BDB69C3F30223044AD2
:103AB000D35C03F01F03D84008BD00BF0044025888
:103AC000ACDA0008404B9B6A03F00303032B79D068
:103AD00070B50E4605463C4A136823F080631360B8
:103AE000FCF74EFE0446384B1B6813F0006F06D0FF
:103AF000FCF746FE001B0228F5D9032070BD324BAF
:103B00009A6A22F47C32296842EA01329A626A682F
:103B1000013AC2F30802A9680139490289B20A438D
:103B2000E9680139090401F4FE010A4329690139F0
:103B3000090601F0FE410A439A63DA6A22F0C002E4
:103B400069690A43DA62DA6A22F02002A9690A4343
:103B5000DA62DA6A22F01002DA62D96B1B4A0A4092
:103B6000E96942EAC102DA63DA6A42F01002DA6213
:103B7000C6B91A46DB6A43F40023D362124A1368BB
:103B800043F080631360FCF7FBFD04460E4B1B689B
:103B900013F0006F14D1FCF7F3FD001B0228F5D9D8
:103BA000032070BD012E05D0074AD36A43F40013E9
:103BB000D362E3E7044AD36A43F48013D362DDE7B8
:103BC000002070BD01207047004402580700FFFF2D
:103BD000404B9B6A03F00303032B79D070B50E466C
:103BE00005463C4A136823F080531360FCF7C8FD78
:103BF0000446384B1B6813F0005F06D0FCF7C0FD8D
:103C0000001B0228F5D9032070BD324B9A6A22F0BE
:103C10007C72296842EA01529A626A68013AC2F3E8
:103C20000802A9680139490289B20A43E9680139E1
:103C3000090401F4FE010A4329690139090601F06A
:103C4000FE410A431A64DA6A22F4406269690A434F
:103C5000DA62DA6A22F40072A9690A43DA62DA6A7D
:103C600022F48072DA62596C1B4A0A40E96942EA1E
:103C7000C1025A64DA6A42F48072DA62C6B91A463C
:103C8000DB6A43F48003D362124A136843F0805323
:103C90001360FCF775FD04460E4B1B6813F0005FC4
:103CA00014D1FCF76DFD001B0228F5D9032070BD6F
:103CB000012E05D0074AD36A43F08073D362E3E74D
:103CC000044AD36A43F40003D362DDE7002070BDE9
:103CD00001207047004402580700FFFFF8B5044672
:103CE000036813F0006F2BD0436EB3F5801F19D01B
:103CF00010D9B3F5001F1BD0B3F5401F1ED100250E
:103D000065BB9B4A136D23F44013616E0B4313652F
:103D10002E4617E093B9964AD36A43F40033D36230
:103D20000025EDE702210430FFF7CCFE0546E7E76A
:103D300002212430FFF74CFF0546E1E70125DFE7CC
:103D400000263546236813F4807F27D0636D042B4B
:103D500021D8DFE803F00513190A0A002E46F1E71F
:103D6000834AD36A43F40033D362B5B9804A136DF2
:103D700023F00703616D0B4313650FE00021201D45
:103D8000FFF7A0FE0546F0E7002104F12400FFF74D
:103D90001FFF0546E9E70125E7E72E46236813F4F0
:103DA000007F29D0A36D802B1ED008D873B1402B83
:103DB0000AD10021201DFFF785FE05460BE0C02B30
:103DC00009D0B3F5807F06D0012504E0684AD36AA4
:103DD00043F40033D36275B9654A136D23F4E0737D
:103DE000A16D0B43136507E0002104F12400FFF7E8
:103DF000EFFE0546EFE72E46236813F4806F2ED0C2
:103E0000D4F8A430B3F5800F21D009D883B1B3F52D
:103E1000001F0BD10021201DFFF754FE05460CE0CA
:103E2000B3F5C00F09D0B3F5000F06D0012504E0AB
:103E30004F4AD36A43F40033D3627DB94C4A936D41
:103E400023F46003D4F8A4100B43936507E000212A
:103E500004F12400FFF7BCFE0546EEE72E4623687A
:103E600013F4006F2ED0D4F8A830B3F1007F21D026
:103E700009D883B1B3F1807F0BD10021201DFFF75A
:103E800021FE05460CE0B3F1407F09D0B3F1806F0D
:103E900006D0012504E0364AD36A43F40033D362E6
:103EA0007DB9334A936D23F0E063D4F8A8100B4337
:103EB000936507E0002104F12400FFF789FE054621
:103EC000EEE72E46236813F0007F20D0A36C102B62
:103ED00008D004D9202B13D0302B08D000E033B108
:103EE000012504E0224AD36A43F40033D3626DB95A
:103EF0001F4AD36C23F03003A16C0B43D36406E05C
:103F00000221201DFFF7DEFD0546F0E72E4623685F
:103F100013F4805F2FD0E36DB3F5005F20D009D894
:103F200083B1B3F5805F0BD10021201DFFF7CAFDDF
:103F300005460CE0B3F5405F09D0B3F5804F06D0DD
:103F4000012504E00A4AD36A43F40033D3628DB9F1
:103F5000074A136D23F4E043E16D0B4313650AE058
:103F6000002104F12400FFF733FE0546EFE700BF10
:103F7000004402582E46236813F4005F29D0236EB4
:103F8000B3F5003F1DD011D83BB1B3F5803F16D13A
:103F90000121201DFFF796FD0546CDB9974A136D07
:103FA00023F4E023216E0B43136512E0B3F5802F59
:103FB000F3D0B3F5A02FF0D0B3F5403FEDD00125FD
:103FC000EBE7012104F12400FFF702FE0546E4E7D8
:103FD0002E46236813F4804F2BD0D4F8AC30B3F1C5
:103FE000005F1ED012D83BB1B3F1805F17D1012121
:103FF000201DFFF767FD0546D5B9804A936D23F074
:10400000E043D4F8AC100B43936512E0B3F1804F5A
:10401000F2D0B3F1A04FEFD0B3F1405FECD0012567
:10402000EAE7012104F12400FFF7D2FD0546E3E7AA
:104030002E46236813F4004F1ED0E36EB3F1805F69
:1040400005D0B3F1005F10D033B1012504E06B4A15
:10405000D36A43F40033D3626DB9684A136D23F019
:104060004053E16E0B43136506E00121201DFFF76D
:1040700029FD0546F0E72E46236813F0807F1DD00A
:10408000636C032B17D8DFE803F0070210075B4AC5
:10409000D36A43F40033D3627DB9584AD36C23F01A
:1040A0000303616C0B43D36408E00221201DFFF77A
:1040B00009FD0546F0E70125EEE72E46236813F4D7
:1040C000800F1FD1236813F0010F00F09E80A36FB3
:1040D000282B00F29080DFE803F07E8E8E8E8E8E8D
:1040E0008E8E798E8E8E8E8E8E8E878E8E8E8E8E0C
:1040F0008E8E7E8E8E8E8E8E8E8E7E8E8E8E8E8E00
:104100008E8E7E003E4A136843F480731360FCF782
:1041100037FB07463A4B1B6813F4807F05D1FCF749
:104120002FFBC01B6428F5D90325002D4AD1334B42
:104130001B6FD4F8B020534013F4407F0CD02F4BAA
:104140001A6F22F44072196F41F480311967196FA8
:1041500021F4803119671A67D4F8B030B3F5807F45
:1041600015D08DBBD4F8B03003F44072B2F5407F67
:104170001ED0224A136923F47C5313611F490B6F2D
:10418000D4F8B020C2F30B0213430B679AE7FCF795
:10419000F7FA0746194B1B6F13F0020FE1D1FCF73A
:1041A000EFFAC01B41F288339842F3D90325D8E7D0
:1041B0001248026922F47C52124901EA1313134394
:1041C0000361DBE72E467DE72E467BE70121201DBC
:1041D000FFF778FC0546BDB9084A536D23F0380354
:1041E000A16F0B43536510E0012104F12400FFF798
:1041F000EFFC0546EFE70125EDE700BF004402585C
:1042000000480258CFFFFF002E46236813F0020F2C
:104210001FD0636F052B19D8DFE803F008031108DE
:1042200008080121201DFFF74DFC054685B9A84A65
:10423000536D23F00703616F0B43536509E00121C0
:1042400004F12400FFF7C4FC0546EFE70125EDE784
:104250002E46236813F0040F21D0D4F89030052B9C
:104260001AD8DFE803F00803120808080121201D0E
:10427000FFF728FC05468DB9954A936D23F0070397
:10428000D4F890100B43936509E0012104F1240058
:10429000FFF79EFC0546EEE70125ECE72E46236876
:1042A00013F0200F2BD0D4F88C30B3F1005F1ED068
:1042B00012D83BB1B3F1805F17D10021201DFFF769
:1042C00001FC0546D5B9824A536D23F0E043D4F88A
:1042D0008C100B43536512E0B3F1804FF2D0B3F171
:1042E000A04FEFD0B3F1405FECD00125EAE7022107
:1042F00004F12400FFF76CFC0546E3E72E46236833
:1043000013F0400F2BD0D4F89830B3F5006F1ED0C7
:1043100012D83BB1B3F5806F17D10021201DFFF7F4
:10432000D1FB0546D5B96A4A936D23F4E053D4F81E
:1043300098100B43936512E0B3F5805FF2D0B3F5AC
:10434000A05FEFD0B3F5406FECD00125EAE7022182
:1043500004F12400FFF73CFC0546E3E72E46236802
:1043600013F0800F2BD0D4F89C30B3F5804F1ED0C3
:1043700012D83BB1B3F5005F17D10021201DFFF724
:10438000A1FB0546D5B9524A936D23F46043D4F896
:104390009C100B43936512E0B3F5004FF2D0B3F5D8
:1043A000204FEFD0B3F5C04FECD00125EAE7022152
:1043B00004F12400FFF70CFC0546E3E72E462368D2
:1043C00013F0080F0AD0D4F88030B3F5805F23D003
:1043D0003F494A6D22F4405213434B65236813F062
:1043E000100F0AD0D4F89430B3F5807F1DD038492F
:1043F0008A6D22F4407213438B65236813F4002FF7
:1044000033D0D4F8A030B3F5803F26D0B3F5003FC9
:1044100019D09BB1012516E0022104F12400FFF719
:10442000D7FB0028DAD00126D8E7022104F12400C6
:10443000FFF7CEFB0028E0D00126DEE70021201D9B
:10444000FFF740FB05467DB9214A936D23F44033C5
:10445000D4F8A0100B43936507E0022104F1240077
:10446000FFF7B6FB0546EEE72E46236813F4802FD0
:1044700023D0D4F88430B3F5001F16D0B3F5401F15
:1044800009D0B3F5801F01D0012504E0104AD36A9A
:1044900043F40033D3627DB90D4A536D23F44013C6
:1044A000D4F884100B43536507E0012104F1240084
:1044B000FFF78EFB0546EEE72E46236813F4803F98
:1044C0001DD0E36C33B1B3F5803F11D0012506E078
:1044D00000440258414AD36A43F40033D3626DB9B1
:1044E0003E4AD36C23F48033E16C0B43D36406E083
:1044F0000221201DFFF7E6FA0546F0E72E46236865
:1045000013F0005F0FD1236813F4003F26D0E36F50
:10451000B3F5807F13D00FD9B3F5007F14D0B3F576
:10452000407F0AD110E0022104F12400FFF750FB84
:104530000028E8D00126E6E733B1012504E0274A48
:10454000D36A43F40033D3623DB9244A536D23F454
:104550004073E16F0B43536500E02E46236813F46C
:10456000801F06D01D4A136D23F00043216F0B43BB
:104570001365236813F0805F07D0184A136923F48A
:104580008043D4F8B4100B431361236813F4001F65
:1045900006D0124A136D23F08073A16E0B4313658E
:1045A000236813F0804F09D00C4B1A6922F40042A3
:1045B0001A611A69D4F8B8100A431A612368002BEB
:1045C00003DB06B101263046F8BD044AD36C23F064
:1045D0004053216D0B43D364F3E700BF00440258FE
:1045E00008B5FFF735FA054B1B6AC3F30213044AFB
:1045F000D35C03F01F03D84008BD00BF004402583D
:10460000ACDA000830B477498C6A8A6AC2F30532A2
:10461000CD6A05F01005CB6BC3F3CC0303FB05F3A8
:10462000002A00F0DA8004F0030407EE903AF8EE76
:10463000677A012C66D0FCB1022C00F0B18007EE45
:10464000102AB8EE477A9FED686AC6EE076A654B96
:104650009B6BC3F3080307EE103AB8EE477A9FED61
:10466000636A67EE867A77EE277AB7EE007A77EE9E
:10467000877A66EEA76A61E05A4B1B6813F0200F39
:1046800023D0584C2168C1F3C101594BCB4007EEF0
:10469000103AB8EE477A06EE902AB8EE666AC7EE90
:1046A000066AA36BC3F3080307EE103AB8EE477A25
:1046B0009FED4E6A67EE867A77EE277AB7EE007A3C
:1046C00077EE877A66EEA76A38E007EE102AB8EE32
:1046D000477A9FED486AC6EE076A424B9B6BC3F36D
:1046E000080307EE103AB8EE477A9FED406A67EE8E
:1046F000867A77EE277AB7EE007A77EE877A66EEDB
:10470000A76A1BE007EE102AB8EE477A9FED366ADB
:10471000C6EE076A334B9B6BC3F3080307EE103AF0
:10472000B8EE477A9FED316A67EE867A77EE277AA0
:10473000B7EE007A77EE877A66EEA76A294A936B1E
:10474000C3F3462307EE103AB8EE477AB7EE006A95
:1047500037EE067AC6EE877AFCEEE77AC0ED007A8D
:10476000936BC3F3064307EE103AB8EE477A37EE81
:10477000067AC6EE877AFCEEE77AC0ED017A936B93
:10478000C3F3066307EE903AF8EE677A77EE867A1F
:1047900086EEA77ABCEEC77A80ED027A30BC70470D
:1047A00007EE102AB8EE477A9FED136AC6EE076A45
:1047B0000C4B9B6BC3F3080307EE103AB8EE477A35
:1047C0009FED0A6A67EE867A77EE277AB7EE007A6F
:1047D00077EE877A66EEA76AB0E70023036043604E
:1047E0008360DBE7004402580024744A000000396B
:1047F0000090D0030024744C0024F44B30B477496B
:104800008C6A8A6AC2F30552CD6A05F480754B6CD6
:10481000C3F3CC0303FB05F3002A00F0DA8004F0B5
:10482000030407EE903AF8EE677A012C66D0FCB1EB
:10483000022C00F0B18007EE102AB8EE477A9FED07
:10484000686AC6EE076A654B1B6CC3F3080307EE84
:10485000103AB8EE477A9FED636A67EE867A77EE94
:10486000277AB7EE007A77EE877A66EEA76A61E07C
:104870005A4B1B6813F0200F23D0584C2168C1F30A
:10488000C101594BCB4007EE103AB8EE477A06EE1D
:10489000902AB8EE666AC7EE066A236CC3F3080373
:1048A00007EE103AB8EE477A9FED4E6A67EE867AC9
:1048B00077EE277AB7EE007A77EE877A66EEA76A08
:1048C00038E007EE102AB8EE477A9FED486AC6EE48
:1048D000076A424B1B6CC3F3080307EE103AB8EEAD
:1048E000477A9FED406A67EE867A77EE277AB7EED1
:1048F000007A77EE877A66EEA76A1BE007EE102A49
:10490000B8EE477A9FED366AC6EE076A334B1B6CEA
:10491000C3F3080307EE103AB8EE477A9FED316A09
:1049200067EE867A77EE277AB7EE007A77EE877AA7
:1049300066EEA76A294A136CC3F3462307EE103AC2
:10494000B8EE477AB7EE006A37EE067AC6EE877A97
:10495000FCEEE77AC0ED007A136CC3F3064307EE72
:10496000103AB8EE477A37EE067AC6EE877AFCEE52
:10497000E77AC0ED017A136CC3F3066307EE903A51
:10498000F8EE677A77EE867A86EEA77ABCEEC77A7B
:1049900080ED027A30BC704707EE102AB8EE477AF5
:1049A0009FED136AC6EE076A0C4B1B6CC3F308033A
:1049B00007EE103AB8EE477A9FED0A6A67EE867AFC
:1049C00077EE277AB7EE007A77EE877A66EEA76AF7
:1049D000B0E70023036043608360DBE700440258D4
:1049E0000024744A000000390090D0030024744C65
:1049F0000024F44B30B477498C6A8A6AC2F30512FA
:104A0000CD6A05F001054B6BC3F3CC0303FB05F343
:104A1000002A00F0DA8004F0030407EE903AF8EE82
:104A2000677A012C66D0FCB1022C00F0B18007EE51
:104A3000102AB8EE477A9FED686AC6EE076A654BA2
:104A40001B6BC3F3080307EE103AB8EE477A9FEDED
:104A5000636A67EE867A77EE277AB7EE007A77EEAA
:104A6000877A66EEA76A61E05A4B1B6813F0200F45
:104A700023D0584C2168C1F3C101594BCB4007EEFC
:104A8000103AB8EE477A06EE902AB8EE666AC7EE9C
:104A9000066A236BC3F3080307EE103AB8EE477AB1
:104AA0009FED4E6A67EE867A77EE277AB7EE007A48
:104AB00077EE877A66EEA76A38E007EE102AB8EE3E
:104AC000477A9FED486AC6EE076A424B1B6BC3F3F9
:104AD000080307EE103AB8EE477A9FED406A67EE9A
:104AE000867A77EE277AB7EE007A77EE877A66EEE7
:104AF000A76A1BE007EE102AB8EE477A9FED366AE8
:104B0000C6EE076A334B1B6BC3F3080307EE103A7C
:104B1000B8EE477A9FED316A67EE867A77EE277AAC
:104B2000B7EE007A77EE877A66EEA76A294A136BAA
:104B3000C3F3462307EE103AB8EE477AB7EE006AA1
:104B400037EE067AC6EE877AFCEEE77AC0ED007A99
:104B5000136BC3F3064307EE103AB8EE477A37EE0D
:104B6000067AC6EE877AFCEEE77AC0ED017A136B1F
:104B7000C3F3066307EE903AF8EE677A77EE867A2B
:104B800086EEA77ABCEEC77A80ED027A30BC704719
:104B900007EE102AB8EE477A9FED136AC6EE076A51
:104BA0000C4B1B6BC3F3080307EE103AB8EE477AC1
:104BB0009FED0A6A67EE867A77EE277AB7EE007A7B
:104BC00077EE877A66EEA76AB0E70023036043605A
:104BD0008360DBE7004402580024744A0000003977
:104BE0000090D0030024744C0024F44B00B58BB02B
:104BF000B0F5807F19D0B0F5007F45D0B0F5806F5B
:104C000076D0B0F5006F00F0AA80B0F5805F00F0BC
:104C1000DD80B0F5002F00F00D81B0F5803F00F091
:104C2000318100200BB05DF804FBA04B1B6D03F03D
:104C30000703042B00F23881DFE803F0050A0F03B5
:104C400014009B48EEE707A8FFF7D4FE0898E9E7B1
:104C500004A8FFF7D7FC0498E4E701A8FFF7CEFD0E
:104C60000198DFE7914BDB6C13F0405301D1914881
:104C7000D8E7B3F1805F00F02181B3F1005F01D08C
:104C80000020CFE78C48CDE7884B1B6D03F4E07321
:104C9000802B1DD008D8B3B1402B40F0118104A85F
:104CA000FFF7B0FC0498BDE7C02B0AD0B3F5807FB6
:104CB00040F006817D4BDB6C13F040530DD17D48F5
:104CC000B0E77B48AEE707A8FFF794FE0898A9E78E
:104CD00001A8FFF793FD0198A4E7B3F1805F00F00E
:104CE000F180B3F1005F01D000209BE7724899E7A3
:104CF0006E4B9B6D03F46003B3F5800F1FD009D892
:104D0000C3B1B3F5001F40F0DF8004A8FFF77AFCC1
:104D1000049887E7B3F5C00F0AD0B3F5000F40F051
:104D2000D380624BDB6C13F040530DD1614879E7BF
:104D30005F4877E707A8FFF75DFE089872E701A8CC
:104D4000FFF75CFD01986DE7B3F1805F00F0BE8076
:104D5000B3F1005F01D0002064E7574862E7534B8E
:104D60009B6D03F0E063B3F1007F1FD009D8C3B19E
:104D7000B3F1807F40F0AC8004A8FFF743FC0498B7
:104D800050E7B3F1407F0AD0B3F1806F40F0A080CC
:104D9000464BDB6C13F040530DD1464842E7444884
:104DA00040E707A8FFF726FE08983BE701A8FFF7B2
:104DB00025FD019836E7B3F1805F00F08B80B3F1F9
:104DC000005F01D000202DE73B482BE7374B1B6DE0
:104DD00003F4E043B3F5005F1DD008D8B3B1B3F5D9
:104DE000805F79D104A8FFF70DFC04981AE7B3F5AA
:104DF000405F09D0B3F5804F6ED12C4BDB6C13F0C4
:104E000040530DD12B480DE729480BE707A8FFF7C2
:104E1000F1FD089806E701A8FFF7F0FC019801E70B
:104E2000B3F1805F5AD0B3F1005F01D00020F9E602
:104E30002148F7E61D4B9B6D03F44033B3F5803FEB
:104E40000AD0B3F5003F0CD00BB10020EAE604A86D
:104E5000FFF7D8FB0498E5E601A8FFF7CFFC03981D
:104E6000E0E6124BDB6C13F0405301D11148D9E658
:104E7000B3F1805F34D0B3F1005F01D00020D1E600
:104E80000D48CFE6094BDB6C13F4803302D033B905
:104E90000020C7E607A8FFF7ADFD0898C2E604A802
:104EA000FFF7B0FB0698BDE60020BBE600440258C1
:104EB0000080BB000090D0030048E8010948B1E63B
:104EC0000020AFE60748ADE60020ABE60548A9E6BE
:104ED0000020A7E60348A5E60020A3E60148A1E6D6
:104EE00000489FE600093D0008B5FEF77DFB064B34
:104EF0009B69C3F30323054AD35C03F01F03D84027
:104F0000034B186008BD00BF00440258ACDA00082B
:104F10005C01002070B4044600206064E0646068B6
:104F2000022818BF002816D1002020654FF48030D9
:104F3000E0654FF6FF7060670020A066236713F0FE
:104F4000010F4CD151B1022913D84FF40030206623
:104F50000020606607E001202065E7E7002020666A
:104F60004FF480256566032A34D8DFE802F0041682
:104F70001F290120F7E78025A5645B085D016565B1
:104F80001B01A3654023E366022929D1012A23D00E
:104F9000022A25D10823A36622E08025A5645B08A8
:104FA0009E0166655B01A365E566EDE7C025A56426
:104FB0005B089D0165655B01A3658023E366E3E70C
:104FC000E025A5645B089D0165655B01A365802301
:104FD000E366D9E70120D7E71023A366D8E70120CD
:104FE00070BC704730B400244464C4644468022C2C
:104FF00018BF002C1BD1012404650024C4654FF4A4
:10500000003505664FF480254566846603674FF6D4
:10501000FF74446703290DD004290FD10121816554
:105020000021032A29D8DFE802F00B141A210024FA
:105030000465E2E70D2181650021F2E70121F0E737
:10504000802282641B0143654023C366084630BC4E
:105050007047802282645B014365C266F6E7C02226
:1050600082645B0143658023C366EFE7E0228264CC
:105070005B0143658023C366E8E70121E6E7012978
:105080000AD00123426C082A08D04268023A012A59
:105090000CD943F0040070470923F3E74268012A62
:1050A00018BF032AF1D143F01003EEE743F060008C
:1050B000704700000E4B1B680E4AA2FB03231B0B1C
:1050C0009B0001680A6822F480320A603BB1013B10
:1050D0000268126812F4803FF8D100207047D0F8BF
:1050E000943043F04003C0F894300320704700BF71
:1050F0005C0100201BECCB952DE9F041002800F06D
:10510000BD810446FBF756FB94F83830012B18D0CC
:105110002368B54AB549934218BF8B4223D002F5A4
:10512000806201F58061934218BF8B4238D002F54E
:10513000806201F58061934218BF8B4232D1AC4E40
:1051400012E02368AB4AA9498B4218BF934240F052
:1051500097816368012B01D0012510E1636C002B5E
:10516000D6D001250BE1A44E94F89130E3B120464E
:10517000FFF7A0FF0546002840F08481022384F851
:105180009130E368012B17D0022B13D00022A368C3
:10519000013B042B12D8DFE803F02513161B200077
:1051A000964EE1E7964EDFE784F89030204606F011
:1051B00035FDDCE72022EAE71022E8E7002713E0CC
:1051C0004FF4006710E042F001024FF400670BE07B
:1051D00042F002024FF4006706E042F003024FF48F
:1051E000006701E04FF480673260236A002B43D0F0
:1051F00023687D4A7D49934218BF8B4200F0C280EC
:10520000002023687F4A8049934218BF8B4200F0F8
:10521000BE8023687D4A7E49934218BF8B4200F0CE
:10522000BB802268734B9A4200F0BB802268794BA6
:105230009A4200F0BB80A369B3F5002F00F0BB8059
:10524000A36AB3F1806F00F0C080012200EB800000
:105250004100236A03FB02F31B02B1FBF3F16E4B27
:10526000A3FB0123DB08636203EB830042008A1A7D
:10527000082A01D9013363626368022B18BF002B2F
:1052800040F0A880236D012B00F0A1804FF400783E
:10529000FBF790FAB0F5005FC0F0C6802268116895
:1052A0005E4B0B40136021680A686368606C0343BF
:1052B000A06C0343E06C034348EA03033B43E06A0A
:1052C000034360690343A0690343606A43EA0053F0
:1052D000A06A03432069034313430B6022685168AB
:1052E0004F4B0B40536021684A68E369206B0343CE
:1052F000606B034313434B6022689168494B0B403A
:10530000936020688268636D013B616E0B43E16DC1
:105310000B43216E0B43A16D013943EA0123134373
:1053200083602268D36823F47D6323F00F031B049A
:105330001B0CD3602068C268A36EE16E0B43616FE3
:1053400043EA0143216F013943EA01231343C36058
:105350002368284A2549934218BF8B4207D1736CB2
:1053600023F00103736494F83830012B7BD00023C1
:10537000C4F89430012284F8912084F890302846B3
:10538000BDE8F0814FF48070FFF730FC39E74FF44F
:105390000070FFF72BFC3CE74FF40070FFF726FC92
:1053A0003FE74FF48060FFF721FC3FE74FF40060D8
:1053B000FFF71CFC3FE700EB80004100226A636DB1
:1053C00003FB02F3B1FBF3F149E702223EE74FF0A2
:1053D00000085DE7236D012B02D04FF0000857E76E
:1053E0004FF4007854E700BF2458014004580140AE
:1053F000006001400454005800580140005C014026
:1054000000540058245C0140045C014024600140C9
:105410000460014024540058CDCCCCCC10C005F021
:10542000F01FFFFF0080F8FF22681168164B0B4049
:105430001360206801686268636C1343A26C1343B5
:10544000E26C134348EA03033B43E76A3B43676963
:105450003B43A2691343626A43EA0253A26A1343BD
:105460000B4303603AE7236CE26B013A43EA021311
:105470007364736C43F00103736478E701257EE77E
:1054800001257CE701257AE710C005F810B5044630
:1054900004290DD8DFE801F00303030808002046C3
:1054A000FFF738FD30B110BD2046FFF79BFDF9E74F
:1054B0000120F7E72046FFF71FFEF4E738B590F824
:1054C0009030012B5DD00446012380F890300368B2
:1054D0001A6812F4003F3AD01A6822F400321A60B7
:1054E00090F89130DBB2122B18D0002594F891304F
:1054F000DBB2222B2CD1D4F8840048B3FBF7ACFEEE
:1055000030B3D4F884305B6D802B21D0D4F8943044
:1055100043F08003C4F89430012519E0D0F88000EE
:1055200088B1FBF799FE05460028DFD0D4F880301B
:105530005B6D802B09D0D4F8943043F08003C4F81D
:1055400094300125D2E70025D0E70025CEE70025DD
:10555000236800221A6123684FF0FF329A612046C7
:10556000FFF7A8FD00B101252268536843F0080346
:105570005360012384F89130002384F8903028464A
:1055800038BD0225FBE7000038B5002A18BF002906
:1055900056D0144690F89130DBB2012B02D0022491
:1055A000204638BD90F89030012B01D10224F7E756
:1055B0000546012280F89020A967A0F87C40A0F859
:1055C0007E400023C0F89430222280F89120D0F849
:1055D00084201C491164D0F884201B49D163D0F881
:1055E00084201A49D164D0F8842013650168B0F88A
:1055F0007C30826F1C31D0F88400FBF709FD044633
:10560000C8B92B681A6812F4803F03D11A6842F4B3
:1056100080321A6000212846FFF731FD2A6813699D
:10562000184310612A68136843F4003313600023A1
:1056300085F89030B4E7002385F890300124AFE777
:105640000124ADE78F560008535600089B5600080A
:10565000704710B5846BC369B3F5807F12D02268A0
:10566000136823F4003313600021A4F87E10204651
:10567000FFF705FD2268136923EA0000106101238A
:1056800084F891302046FFF7E3FF10BD704708B55E
:10569000806BFFF7FBFF08BD704710B5846BFCF70C
:1056A0002BFC022816D0D4F8943043F08003C4F8C1
:1056B00094302268136823F4003313602046FFF708
:1056C000F9FC012384F891300023A4F87E302046B1
:1056D000FFF7E2FF10BD000090F89130002B00F0C2
:1056E000148110B50446026853691169106813F0FB
:1056F000080F02D011F0080F16D113F0010F1AD0C5
:1057000011F0010F17D00123936194F89130DBB2AF
:10571000222B0ED00223D4F894201343C4F89430E3
:105720002046FFF7B9FF10BDD4F88C3020469847CB
:1057300010BD0123EFE713F0020F0BD011F0020FA1
:1057400008D002239361D4F88830002B00F0D08079
:10575000984710BD13F0200F3ED011F0200F3BD022
:10576000D4F8943043F00403C4F8943010F4003FAC
:105770002BD0D4F8803033B1644A1A65D4F8800055
:10578000FBF7B0FEB8B9D4F88430002B00F0B0803D
:105790005E4A1A65D4F88400FBF7A4FE002800F0E6
:1057A000A780D4F8943043F08003C4F894302046A6
:1057B000FFF772FF10BDD4F8943043F08003C4F8B3
:1057C00094302046FFF768FFDDE72046FFF776FEBE
:1057D0002046FFF761FF10BD13F0400F3CD011F0E1
:1057E000400F39D0D4F8943043F00803C4F8943013
:1057F00010F4003F29D0D4F8803033B1434A1A6501
:10580000D4F88000FBF76EFEA8B9D4F88430002BE2
:105810006ED03E4A1A65D4F88400FBF763FE002878
:1058200066D0D4F8943043F08003C4F89430204616
:10583000FFF732FF10BDD4F8943043F08003C4F872
:1058400094302046FFF728FFDFE72046FFF736FEBB
:105850002046FFF721FF10BD13F0040F42D011F0D6
:10586000040F3FD0D4F8943043F02003C4F89430B0
:1058700010F4003F27D0D4F8803033B1234A1A65A2
:10588000D4F88000FBF72EFE98B9D4F884307BB3AF
:105890001E4A1A65D4F88400FBF724FE40B3D4F8FE
:1058A000943043F08003C4F894302046FFF7F4FEB0
:1058B00010BDD4F8943043F08003C4F894302046EF
:1058C000FFF7EAFEE1E70023136122684FF0FF31A2
:1058D0009161012284F89120A4F87E302046FFF7E0
:1058E000DBFE10BD13F0100F02D011F0100F00D12D
:1058F00010BD10239361D4F8943043F01003C4F822
:1059000094302046FFF7C8FEF2E7704711590008AF
:1059100010B5846B2268136823F400331360236886
:1059200000221A6123684FF0FF329A61D4F8943054
:10593000202B07D02046FFF7BDFB2268536843F0B9
:1059400008035360012384F891300023A4F87E30CB
:105950002046FFF7A1FE10BD10B40268536991699B
:1059600041F00801916101688A6942F010028A6180
:1059700001680A6822F001020A6001680C69294A7C
:1059800022400A6101688A6822F440428A6090F8E5
:105990008120D2B2042A0DD013F0200F0AD0D0F803
:1059A000842042F08002C0F8842001688A6942F0B5
:1059B00020028A6190F88120D2B2032A0DD013F020
:1059C000400F0AD0D0F8842042F00402C0F88420AE
:1059D00001688A6942F040028A6113F4007F0AD0AC
:1059E000D0F8842042F00102C0F8842001688A695E
:1059F00042F400728A6113F4807F0AD0D0F88430B8
:105A000043F00803C0F884300268936943F480735C
:105A100093610023A0F86230A0F86A305DF8044B6F
:105A2000704700BF90FCFFFFC36B5B09C068083084
:105A3000C00803FB000070472DE9F04107460E4601
:105A400015469846069C00E0BCB13B685B6936EAA7
:105A500003030CBF01230023AB420BD1FAF790FEE6
:105A6000A0EB0800A042EFD3B4F1FF3FECD003203D
:105A7000BDE8F0810020BDE8F0810320BDE8F081A1
:105A8000002800F0998070B5044600238362056801
:105A90004C4B4D4E9D4218BFB54214BF0126002607
:105AA00007D0A3F574439D4203D0C3680F2B00F2C7
:105AB00085802046FFF7B8FF26B1444B9D4201D0B8
:105AC00008287DD8404B3F4A9D4218BF95425CD084
:105AD00003F580639D4258D094F88130002B58D054
